:020000040000fa
:080000000002040000000000f2
:020000040000fa
:100400000f8020000edf20000e0188000000000099
:100410000c000700407020000100200011000700c0
:10042000000020000000e000020032000000020096
:1004300000000000f0060200000000000040da00aa
:100440000000fe004440a900000020000000e00081
:100450000300320000002000a00188004440a800f2
:100460000000060091018800800078000000eb0089
:1004700015003700e280400032a0b4009101ba00bc
:10048000e280400032a0b4009102ba00e280400055
:1004900032a0b4000002eb00472bde00f507b200eb
:1004a000602ce10004003a000059eb008301e900f0
:1004b000fdff3e00040037006128e100010032002a
:1004c0000082eb00040007001101ba000200e00006
:1004d000e8ff3a00000006003159ba008301e90044
:1004e0000c0032002159ba008301e90008003200f3
:1004f0000400e00003003a00e280400032a0b400b3
:10050000f5ff370011d9ba008301e900faff3a007c
:100510008100e800e180400032a0b4000000060045
:100520000040da000000fe0003f0a200889fbe0039
:100530008a9fbe008c1f78001c0107002301330036
:100540006450e1004f0032006420e10052003200ac
:1005500003826c0007003b000905d0000306d000b1
:10056000820f54000c065d000200390002003200c8
:1005700089017800030678008582550004003d005b
:100580000003fd008103fd008502ea008b85420027
:10059000840f720002003b0060001000e080180031
:1005a0006011b8000005eb007a28e1000a0039006c
:1005b00006007800c75ddd00f707b2008780750090
:1005c0002d003700828171000a017800610560000a
:1005d0008180d1000080d3008502e900f9ff3b0053
:1005e000060440008784480002003b0060041400b9
:1005f000e0841c000988a300070032008a81710092
:1006000082817100610164008904d1000884d300f3
:100610008b05e800170037000978a30013003a00a3
:100620000b00e000130034008b05e90008044400cf
:1006300089844c000a4474000978a3000d003a0034
:100640000b00e000070034008b05e90008044400bb
:1006500089844c0001003a000b0020000978a300b7
:10066000f7ff32000001eb000200370082817100c9
:100670000a017800920007000cf0a70001f0a0002a
:10068000db0037006420e10002003a00838f6c0039
:10069000db0033000801be000200be00d4003700ba
:1006a000889fbe008a9fbe008c1f7800bf00070095
:1006b000c600330003866c006450e1002e00320057
:1006c0006420e100330032006150e1002f0032006d
:1006d0006120e1003100320085855500eb07b00054
:1006e0000900200008042000050037000804440029
:1006f00089844c000a0031000603430087834b00c5
:100700000001530081815b00f8ff33000203be004b
:100710000800a0000804440089844c00f6ff39005a
:10072000c639dd0083017300010032001300200090
:100730008904d1000884d3000998a3000500320081
:100740000800a7000300a0008904d1000884d3009a
:100750008b05e8008904d1000884d3000001eb0078
:100760000281d2005600070001f0a1000cf0a700a2
:1007700001f0a0009e0037006420e100a0003200dc
:100780000801be000200be00f7ff37006120e10053
:100790009b0032006000b800f3ff3700000020002b
:1007a00001f82700f0ff37000001be006a000700d3
:1007b0000470a70003f0a10003f8a30013003a009f
:1007c0006509b10010003200090035006928e10018
:1007d0000200350001002800000005000000400074
:1007e000818048008502e900fcff3a000000060015
:1007f000f88f4200050035008100d1000080d30051
:100800008502e800fcff3a00000006008000eb00d3
:1008100000000500889fbe008a9fbe000105780089
:100820000100e0000400350008003c000000e0008a
:10083000200032000500370060001000e080180042
:1008400002003b0001f02c001a0037000004be003b
:100850006011b8006b0920000982cf000200390046
:100860000882cf000441b000694252000e003200fd
:1008700008003b0082817100610164008904d1009d
:100880000884d3008b05e8000442e800f9ff3a0031
:10089000050037000804440089844c008b05e900fa
:1008a0000442e900fbff3a00050007000af0a70038
:1008b00001f0a0004f05be004f04be00000006007e
:1008c00081002000618055000b003d000b002000de
:1008d00061fe2f000100e1001d00340082817100e3
:1008e000610164008904d1000884d3000000e8009d
:1008f000faff3a00710020006100640003007000fc
:10090000020060000900320061044400e0844c00f1
:100910000988a500050032008b05e8006808e100a1
:1009200002003a008904d1000884d300f20f2000ad
:100930000258e10005003d00c75ddd00f907b20087
:100940008980750008007800000006000bf8270079
:100950008b00780000000500c70ade00f107b20036
:10096000f50fb20008003200e1cf42000200320071
:100970000170a00024000500810f7000010032000a
:100980000408050044000500810f700002003a00d1
:10099000140005008502e9000000400081c0480005
:1009a000fcff3b000170a000240005000004be0015
:1009b000e9ff07000003be000405be000200be0000
:1009c000e5ff0700844f7500000006000200be002e
:1009d0006450e100050036006420e10002003600aa
:1009e0000968a30001003a000800be000160a000f1
:1009f0004f0678004f05be004f04be000000060001
:100a0000f0ff2f00f1ff2700f9ff3700889fbe009d
:100a10008a9fbe008c1f7800e4ff0700ebff3300c5
:100a200003866c006450e100240032006420e10081
:100a3000270032006150e100220032006120e10015
:100a4000210032008b854200eb07b1000134b80071
:100a5000003ab8000804420089844a00013ab8000c
:100a60000030b8008880400009014a0004003300cb
:100a70000000400081804800020149008b05e90028
:100a8000c909dd008301700001003200130020005d
:100a9000c814de004814dd004709de001200b20071
:100aa000c808de000884700085ff070001f0a1007f
:100ab0000cf0a70001f0a000cdff37006120e1009d
:100ac000cfff32000801be000200be00f7ff370072
:0c0ad0006150e100fcff3a00c9ff370054
:020000040000fa
:0200000401f009
:04000800ffff0000f6
:020000040000fa
:0200000401f009
:04000c007aff000077
:020000040000fa
:0200000401f009
:04001000baff000033
:020000040000fa
:0200000401f009
:040014007fff00006a
:020000040000fa
:0200000401f009
:04001800f6ff0000ef
:020000040000fa
:0200000401f009
:040020003fff00009e
:020000040000fa
:1000080090020000900200009002000090020000a0
:100018009002000090020000900200009002000090
:100028009002000090020000900200009002000080
:100038009002000090020000900200009002000070
:020000040000fa
:020000040000fa
:100adc000000fa00c802a900cc02a9000080fa00ac
:100aec00000006002200fa00889fbe000000eb0008
:100afc00600f98006000b800400f9800510f9800ec
:100b0c006000b800200f9800310f98006000b8000a
:100b1c00000f9800110f98000000200001ba23006c
:100b2c00600798007107980000002400c161240040
:100b3c00400798005107980000002000010a24008b
:100b4c00200798003107980000302b0011972400e3
:100b5c00008fbe007f000700600f98006e089000a9
:100b6c00cf80de0028ff0700700f98000117980057
:100b7c006e0890000000e00007003d00020020001d
:100b8c00037824007e0890008e10900064fe07000d
:100b9c00700f9800011798006e019000fe019000f4
:100bac007e0890008e10900095ff0700200f980093
:100bbc00310f98004e019000de0190002e0890003d
:100bcc00be0890008eff07000004be002e099000a6
:100bdc00be0990002e009000be0090004ffe070052
:100bec000001be000800be00aafe0700000f98001e
:100bfc00110f98001e01be000e0890009e08900078
:100c0c00a4fe070002002000832c2c007cff0700b0
:100c1c0002002000832c240041fe0700020020006b
:100c2c00a347240076ff0700dcfe0700400f980066
:100c3c00510f98004e099000de099000f0f226004a
:100c4c0011002000800f5100818f590002003600e6
:100c5c00cc02a90001003700cc02a8004f04be0052
:100c6c000080fa00000006000000fa00c002a80094
:100c7c0021e3a90025e3a90051322000914078001e
:100c8c0000ceb30000c06000f040b30025e3b70015
:100c9c00413220009140780000ccb30000c06000cd
:100cac0024e3b7002343a90022e3a900213220004a
:100cbc009140780030ccb30000c0600022e3b70054
:100ccc002223a9002203a90021a3a900113220008c
:100cdc0091407800c0cfb30000c0600021e3b700a2
:100cec0020c3bf007f40600020e3b7002043a90071
:100cfc000080fa00000006000200fa00004f7800a5
:100d0c0021e3a900401f2000010020002300070060
:100d1c009e4078006fc060006f4060006f406000c4
:100d2c006f416000813220009140780000cfb30009
:100d3c0000c060000240700028e3b700401f200094
:100d4c00010020001500070021e3a8000080fa0034
:100d5c00000006000000fa002023a80020c3bf00fa
:100d6c00624060000004e000fcff32002023a90078
:100d7c0020c3bf00624060000004e000fcff3a00aa
:100d8c0020c3bf00614060000004e000fcff3200a3
:0c0d9c00001880000080fa000000060033
:020000040000fa
:100da800f03fb1000180b10006003500ee030900f4
:100db80000000000403fb1000180b100fbff3d0092
:100dc8001000b000203fb00002003500008009008c
:080dd80000000000000006000d
:020000040000fa
:100de0000000fa00a3ff07000040eb00c5ff07006a
:100df0003aff07003eff070000122a0071002000a2
:080e0000e9ff0700fbff3700ca
:020000040000fa
:040e080000000000e6
:00000001FF
